{
  "contractName": "Fighter",
  "abi": [
    {
      "constant": true,
      "inputs": [
        {
          "name": "self",
          "type": "Fighter.Data storage"
        }
      ],
      "name": "numberOfItems",
      "outputs": [
        {
          "name": "availableItemsCount",
          "type": "uint256"
        }
      ],
      "payable": false,
      "stateMutability": "view",
      "type": "function"
    },
    {
      "constant": true,
      "inputs": [
        {
          "name": "self",
          "type": "Fighter.Data storage"
        }
      ],
      "name": "power",
      "outputs": [
        {
          "name": "wearingPower",
          "type": "uint256"
        }
      ],
      "payable": false,
      "stateMutability": "view",
      "type": "function"
    },
    {
      "constant": false,
      "inputs": [
        {
          "name": "self",
          "type": "Fighter.Data storage"
        }
      ],
      "name": "obtainItem",
      "outputs": [
        {
          "name": "itemId",
          "type": "uint256"
        }
      ],
      "payable": false,
      "stateMutability": "nonpayable",
      "type": "function"
    },
    {
      "constant": false,
      "inputs": [
        {
          "name": "self",
          "type": "Fighter.Data storage"
        },
        {
          "name": "itemId",
          "type": "uint256"
        }
      ],
      "name": "putOnItem",
      "outputs": [],
      "payable": false,
      "stateMutability": "nonpayable",
      "type": "function"
    },
    {
      "constant": false,
      "inputs": [
        {
          "name": "self",
          "type": "Fighter.Data storage"
        },
        {
          "name": "itemId",
          "type": "uint256"
        }
      ],
      "name": "discardItem",
      "outputs": [],
      "payable": false,
      "stateMutability": "nonpayable",
      "type": "function"
    }
  ],
  "bytecode": "0x610514610030600b82828239805160001a6073146000811461002057610022565bfe5b5030600052607381538281f3007300000000000000000000000000000000000000003014606060405260043610610084576000357c0100000000000000000000000000000000000000000000000000000000900463ffffffff168063120b2781146100895780631ce7ceea146100c0578063317ffd18146100ec57806337fa61fb146101185780634ad85daf14610144575b600080fd5b811561009457600080fd5b6100aa6004808035906020019091905050610170565b6040518082815260200191505060405180910390f35b6100d660048080359060200190919050506102fa565b6040518082815260200191505060405180910390f35b6101026004808035906020019091905050610351565b6040518082815260200191505060405180910390f35b811561012357600080fd5b61014260048080359060200190919080359060200190919050506103ca565b005b811561014f57600080fd5b61016e600480803590602001909190803590602001909190505061043d565b005b60008060008084601461018282610351565b10151561018e57600080fd5b85428160030154111515156101a257600080fd5b426040518082815260200191505060405180910390206001900494506005808111156101ca57fe5b858115156101d457fe5b069350606485604051808281526020019150506040518091039020600190048115156101fc57fe5b06925086600401600081548092919060010191905055955060806040519081016040528085600581111561022c57fe5b600581111561023757fe5b81526020018481526020016001151581526020016000151581525087600501600088815260200190815260200160002060008201518160000160006101000a81548160ff0219169083600581111561028b57fe5b02179055506020820151816001015560408201518160020160006101000a81548160ff02191690831515021790555060608201518160020160016101000a81548160ff021916908315150217905550905050610e10420163ffffffff1687600301819055505050505050919050565b600080600090505b60058081111561030e57fe5b60ff168160ff16101561034b578260060160008260ff1660ff16815260200190815260200160002060010154820191508080600101915050610302565b50919050565b60008060008091505b83600401548210156103c35783600501600083815260200190815260200160002090508060020160009054906101000a900460ff1680156103aa57508060020160019054906101000a900460ff16155b156103b6576001830192505b818060010192505061035a565b5050919050565b600082600501600083815260200190815260200160002090508060020160009054906101000a900460ff16801561041057508060020160019054906101000a900460ff16155b151561041b57600080fd5b60008160020160006101000a81548160ff021916908315150217905550505050565b60008083600501600084815260200190815260200160002091508360060160008360000160009054906101000a900460ff16600581111561047a57fe5b60ff1660ff16815260200190815260200160002090508060020160019054906101000a900460ff16156104c55760008160020160016101000a81548160ff0219169083151502179055505b60018260020160016101000a81548160ff021916908315150217905550505050505600a165627a7a72305820ac4454f7fdb880f4c315262848f8e0708330b26f850fe3638a13802189456e820029",
  "source": "pragma solidity ^0.4.17;\n\nlibrary Fighter {\n    enum BodyPart { Weapon, Clothes, Belt, LeftRing, RightRing, End }\n\n    struct Item {\n        BodyPart bodyPart;\n        uint power;\n        bool isAvailable;\n        bool isWearing;\n    }\n\n    enum Gender { Male, Female }\n\n    struct Data { \n        uint id;\n        string name;\n        Gender gender;\n        uint readyTime;\n        uint itemCount;\n        mapping(uint => Item) items; // key is index\n        mapping(uint8 => Item) partToItem; // key is BodyPart\n    }\n\n    modifier hasVacancy(Data storage self) {        \n        require(numberOfItems(self) < 20);\n        _;\n    }\n\n    modifier isReady(Data storage self) {        \n        require(self.readyTime <= now);\n        _;\n    }\n\n    function numberOfItems(Data storage self) public view returns (uint availableItemsCount) {\n        for (uint i = 0; i < self.itemCount; i++) {\n            Item storage item = self.items[i];\n            if (item.isAvailable && !item.isWearing) {\n                availableItemsCount += 1;\n            }\n        }\n    }\n\n    function power(Data storage self) public view returns (uint wearingPower) {\n        for (uint8 i = 0; i < uint8(BodyPart.End); i++) {\n            wearingPower += self.partToItem[i].power;\n        }\n    }\n\n    function obtainItem(Data storage self) public hasVacancy(self) isReady(self) returns (uint itemId) {\n        uint seed = uint(keccak256(now));\n        uint bodyPart = seed % uint(BodyPart.End);\n        uint thepower = uint(keccak256(seed)) % 100;\n        itemId = self.itemCount++;\n        self.items[itemId] = Item(BodyPart(bodyPart), thepower, true, false);\n        self.readyTime = uint32(now + 1 hours);\n    }\n\n    function putOnItem(Data storage self, uint itemId) public {\n        Item storage item = self.items[itemId];\n        Item storage oldItem = self.partToItem[uint8(item.bodyPart)];\n        if (oldItem.isWearing) {\n            oldItem.isWearing = false;\n        }\n        item.isWearing = true;\n    }\n\n    function discardItem(Data storage self, uint itemId) public {\n        Item storage item = self.items[itemId];\n        require(item.isAvailable && !item.isWearing);\n        item.isAvailable = false;\n    }\n}",
  "sourcePath": "/Users/dark/work/CryptoWarrior/ethereum/contracts/Fighter.sol",
  "compiler": {
    "name": "solc",
    "version": "0.4.21+commit.dfe3193c.Emscripten.clang"
  },
  "schemaVersion": "2.0.0",
  "updatedAt": "2018-04-08T01:59:08.023Z"
}