{
  "contractName": "Game",
  "abi": [
    {
      "constant": true,
      "inputs": [
        {
          "name": "",
          "type": "uint256"
        }
      ],
      "name": "fighters",
      "outputs": [
        {
          "name": "id",
          "type": "uint256"
        },
        {
          "name": "name",
          "type": "string"
        },
        {
          "name": "gender",
          "type": "uint8"
        },
        {
          "name": "readyTime",
          "type": "uint256"
        },
        {
          "name": "itemCount",
          "type": "uint256"
        }
      ],
      "payable": false,
      "stateMutability": "view",
      "type": "function"
    },
    {
      "constant": true,
      "inputs": [],
      "name": "owner",
      "outputs": [
        {
          "name": "",
          "type": "address"
        }
      ],
      "payable": false,
      "stateMutability": "view",
      "type": "function"
    },
    {
      "constant": true,
      "inputs": [
        {
          "name": "",
          "type": "uint256"
        }
      ],
      "name": "fighterOwners",
      "outputs": [
        {
          "name": "",
          "type": "address"
        }
      ],
      "payable": false,
      "stateMutability": "view",
      "type": "function"
    },
    {
      "constant": false,
      "inputs": [
        {
          "name": "newOwner",
          "type": "address"
        }
      ],
      "name": "transferOwnership",
      "outputs": [],
      "payable": false,
      "stateMutability": "nonpayable",
      "type": "function"
    },
    {
      "anonymous": false,
      "inputs": [
        {
          "indexed": true,
          "name": "previousOwner",
          "type": "address"
        },
        {
          "indexed": true,
          "name": "newOwner",
          "type": "address"
        }
      ],
      "name": "OwnershipTransferred",
      "type": "event"
    },
    {
      "constant": false,
      "inputs": [
        {
          "name": "name",
          "type": "string"
        },
        {
          "name": "gender",
          "type": "uint8"
        }
      ],
      "name": "createFighter",
      "outputs": [
        {
          "name": "fighterId",
          "type": "uint256"
        }
      ],
      "payable": false,
      "stateMutability": "nonpayable",
      "type": "function"
    },
    {
      "constant": false,
      "inputs": [
        {
          "name": "name",
          "type": "string"
        }
      ],
      "name": "pushFighter",
      "outputs": [],
      "payable": false,
      "stateMutability": "nonpayable",
      "type": "function"
    },
    {
      "constant": true,
      "inputs": [],
      "name": "age",
      "outputs": [
        {
          "name": "",
          "type": "uint256"
        }
      ],
      "payable": false,
      "stateMutability": "pure",
      "type": "function"
    }
  ],
  "bytecode": "0x6060604052336000806101000a81548173ffffffffffffffffffffffffffffffffffffffff021916908373ffffffffffffffffffffffffffffffffffffffff1602179055506109a6806100536000396000f300606060405260043610610083576000357c0100000000000000000000000000000000000000000000000000000000900463ffffffff168063262a9dff146100885780632e6b221d146100b15780635c69a23f146101775780638da5cb5b146101d457806392165a6014610229578063e5cbb6931461028c578063f2fde38b14610309575b600080fd5b341561009357600080fd5b61009b610342565b6040518082815260200191505060405180910390f35b34156100bc57600080fd5b6100d2600480803590602001909190505061034b565b60405180868152602001806020018560018111156100ec57fe5b60ff168152602001848152602001838152602001828103825286818151815260200191508051906020019080838360005b8381101561013857808201518184015260208101905061011d565b50505050905090810190601f1680156101655780820380516001836020036101000a031916815260200191505b50965050505050505060405180910390f35b341561018257600080fd5b6101d2600480803590602001908201803590602001908080601f01602080910402602001604051908101604052809392919081815260200183838082843782019150505050505091905050610435565b005b34156101df57600080fd5b6101e76104fe565b604051808273ffffffffffffffffffffffffffffffffffffffff1673ffffffffffffffffffffffffffffffffffffffff16815260200191505060405180910390f35b341561023457600080fd5b61024a6004808035906020019091905050610523565b604051808273ffffffffffffffffffffffffffffffffffffffff1673ffffffffffffffffffffffffffffffffffffffff16815260200191505060405180910390f35b341561029757600080fd5b6102f3600480803590602001908201803590602001908080601f0160208091040260200160405190810160405280939291908181526020018383808284378201915050505050509190803560ff16906020019091905050610556565b6040518082815260200191505060405180910390f35b341561031457600080fd5b610340600480803573ffffffffffffffffffffffffffffffffffffffff169060200190919050506106ab565b005b6000602a905090565b60018181548110151561035a57fe5b9060005260206000209060070201600091509050806000015490806001018054600181600116156101000203166002900480601f01602080910402602001604051908101604052809291908181526020018280546001816001161561010002031660029004801561040c5780601f106103e15761010080835404028352916020019161040c565b820191906000526020600020905b8154815290600101906020018083116103ef57829003601f168201915b5050505050908060020160009054906101000a900460ff16908060030154908060040154905085565b600180548060010182816104499190610800565b9160005260206000209060070201600060a060405190810160405280600181526020018581526020016000600181111561047f57fe5b8152602001428152602001600081525090919091506000820151816000015560208201518160010190805190602001906104ba929190610832565b5060408201518160020160006101000a81548160ff021916908360018111156104df57fe5b0217905550606082015181600301556080820151816004015550505050565b6000809054906101000a900473ffffffffffffffffffffffffffffffffffffffff1681565b60026020528060005260406000206000915054906101000a900473ffffffffffffffffffffffffffffffffffffffff1681565b60006001805490509050600180548060010182816105749190610800565b9160005260206000209060070201600060a0604051908101604052808581526020018781526020018660ff1660018111156105ab57fe5b60018111156105b657fe5b8152602001428152602001600081525090919091506000820151816000015560208201518160010190805190602001906105f1929190610832565b5060408201518160020160006101000a81548160ff0219169083600181111561061657fe5b021790555060608201518160030155608082015181600401555050506000809054906101000a900473ffffffffffffffffffffffffffffffffffffffff166002600083815260200190815260200160002060006101000a81548173ffffffffffffffffffffffffffffffffffffffff021916908373ffffffffffffffffffffffffffffffffffffffff16021790555092915050565b6000809054906101000a900473ffffffffffffffffffffffffffffffffffffffff1673ffffffffffffffffffffffffffffffffffffffff163373ffffffffffffffffffffffffffffffffffffffff1614151561070657600080fd5b600073ffffffffffffffffffffffffffffffffffffffff168173ffffffffffffffffffffffffffffffffffffffff161415151561074257600080fd5b8073ffffffffffffffffffffffffffffffffffffffff166000809054906101000a900473ffffffffffffffffffffffffffffffffffffffff1673ffffffffffffffffffffffffffffffffffffffff167f8be0079c531659141344cd1fd0a4f28419497f9722a3daafe3b4186f6b6457e060405160405180910390a3806000806101000a81548173ffffffffffffffffffffffffffffffffffffffff021916908373ffffffffffffffffffffffffffffffffffffffff16021790555050565b81548183558181151161082d5760070281600702836000526020600020918201910161082c91906108b2565b5b505050565b828054600181600116156101000203166002900490600052602060002090601f016020900481019282601f1061087357805160ff19168380011785556108a1565b828001600101855582156108a1579182015b828111156108a0578251825591602001919060010190610885565b5b5090506108ae919061090d565b5090565b61090a91905b80821115610906576000808201600090556001820160006108d99190610932565b6002820160006101000a81549060ff021916905560038201600090556004820160009055506007016108b8565b5090565b90565b61092f91905b8082111561092b576000816000905550600101610913565b5090565b90565b50805460018160011615610100020316600290046000825580601f106109585750610977565b601f016020900490600052602060002090810190610976919061090d565b5b505600a165627a7a723058200d545388198df93a364e14350c0f9137752b68916e1bac2a20e9f3c08e1c3e4c0029",
  "source": "pragma solidity ^0.4.17;\n\nimport \"../node_modules/zeppelin-solidity/contracts/ownership/Ownable.sol\";\nimport \"./Fighter.sol\";\n\ncontract Game is Ownable {\n    using Fighter for Fighter.Data;\n    Fighter.Data[] public fighters;\n\n    mapping (uint => address) public fighterOwners;\n\n    function createFighter(string name, uint8 gender) public returns (uint fighterId) {\n        fighterId = fighters.length;\n        fighters.push(Fighter.Data(fighterId, name, Fighter.Gender(gender), now, 0));\n        fighterOwners[fighterId] = owner;\n    }\n\n    function pushFighter(string name) public {\n        fighters.push(Fighter.Data(1, name, Fighter.Gender.Male, now, 0));\n    }\n\n    function age() public pure returns (uint) {\n        return 42;\n    }\n}",
  "sourcePath": "/Users/dark/work/CryptoWarrior/ethereum/contracts/Game.sol",
  "compiler": {
    "name": "solc",
    "version": "0.4.21+commit.dfe3193c.Emscripten.clang"
  },
  "schemaVersion": "2.0.0",
  "updatedAt": "2018-04-08T01:59:08.019Z"
}