{
  "contractName": "Game",
  "abi": [
    {
      "constant": true,
      "inputs": [
        {
          "name": "",
          "type": "uint256"
        }
      ],
      "name": "fighters",
      "outputs": [
        {
          "name": "id",
          "type": "uint256"
        },
        {
          "name": "name",
          "type": "string"
        },
        {
          "name": "gender",
          "type": "uint8"
        },
        {
          "name": "readyTime",
          "type": "uint256"
        },
        {
          "name": "itemCount",
          "type": "uint256"
        }
      ],
      "payable": false,
      "stateMutability": "view",
      "type": "function"
    },
    {
      "constant": true,
      "inputs": [],
      "name": "owner",
      "outputs": [
        {
          "name": "",
          "type": "address"
        }
      ],
      "payable": false,
      "stateMutability": "view",
      "type": "function"
    },
    {
      "constant": true,
      "inputs": [
        {
          "name": "",
          "type": "uint256"
        }
      ],
      "name": "fighterOwners",
      "outputs": [
        {
          "name": "",
          "type": "address"
        }
      ],
      "payable": false,
      "stateMutability": "view",
      "type": "function"
    },
    {
      "constant": false,
      "inputs": [
        {
          "name": "newOwner",
          "type": "address"
        }
      ],
      "name": "transferOwnership",
      "outputs": [],
      "payable": false,
      "stateMutability": "nonpayable",
      "type": "function"
    },
    {
      "anonymous": false,
      "inputs": [
        {
          "indexed": true,
          "name": "previousOwner",
          "type": "address"
        },
        {
          "indexed": true,
          "name": "newOwner",
          "type": "address"
        }
      ],
      "name": "OwnershipTransferred",
      "type": "event"
    },
    {
      "constant": false,
      "inputs": [
        {
          "name": "name",
          "type": "string"
        },
        {
          "name": "gender",
          "type": "uint8"
        }
      ],
      "name": "createFighter",
      "outputs": [
        {
          "name": "fighterId",
          "type": "uint256"
        }
      ],
      "payable": false,
      "stateMutability": "nonpayable",
      "type": "function"
    }
  ],
  "bytecode": "0x6060604052336000806101000a81548173ffffffffffffffffffffffffffffffffffffffff021916908373ffffffffffffffffffffffffffffffffffffffff1602179055506107ae806100536000396000f30060606040526004361061006d576000357c0100000000000000000000000000000000000000000000000000000000900463ffffffff1680632e6b221d146100725780638da5cb5b1461015557806392165a60146101aa578063e5cbb6931461020d578063f2fde38b1461028a575b600080fd5b341561007d57600080fd5b61009360048080359060200190919050506102c3565b60405180868152602001806020018560018111156100ad57fe5b60ff1681526020018481526020018381526020018281038252868181546001816001161561010002031660029004815260200191508054600181600116156101000203166002900480156101425780601f1061011757610100808354040283529160200191610142565b820191906000526020600020905b81548152906001019060200180831161012557829003601f168201915b5050965050505050505060405180910390f35b341561016057600080fd5b610168610314565b604051808273ffffffffffffffffffffffffffffffffffffffff1673ffffffffffffffffffffffffffffffffffffffff16815260200191505060405180910390f35b34156101b557600080fd5b6101cb6004808035906020019091905050610339565b604051808273ffffffffffffffffffffffffffffffffffffffff1673ffffffffffffffffffffffffffffffffffffffff16815260200191505060405180910390f35b341561021857600080fd5b610274600480803590602001908201803590602001908080601f0160208091040260200160405190810160405280939291908181526020018383808284378201915050505050509190803560ff1690602001909190505061036c565b6040518082815260200191505060405180910390f35b341561029557600080fd5b6102c1600480803573ffffffffffffffffffffffffffffffffffffffff169060200190919050506104b3565b005b6001818154811015156102d257fe5b906000526020600020906007020160009150905080600001549080600101908060020160009054906101000a900460ff16908060030154908060040154905085565b6000809054906101000a900473ffffffffffffffffffffffffffffffffffffffff1681565b60026020528060005260406000206000915054906101000a900473ffffffffffffffffffffffffffffffffffffffff1681565b600060018054905090506001805480600101828161038a9190610608565b9160005260206000209060070201600060a0604051908101604052808581526020018781526020018660018111156103be57fe5b8152602001428152602001600081525090919091506000820151816000015560208201518160010190805190602001906103f992919061063a565b5060408201518160020160006101000a81548160ff0219169083600181111561041e57fe5b021790555060608201518160030155608082015181600401555050506000809054906101000a900473ffffffffffffffffffffffffffffffffffffffff166002600083815260200190815260200160002060006101000a81548173ffffffffffffffffffffffffffffffffffffffff021916908373ffffffffffffffffffffffffffffffffffffffff16021790555092915050565b6000809054906101000a900473ffffffffffffffffffffffffffffffffffffffff1673ffffffffffffffffffffffffffffffffffffffff163373ffffffffffffffffffffffffffffffffffffffff1614151561050e57600080fd5b600073ffffffffffffffffffffffffffffffffffffffff168173ffffffffffffffffffffffffffffffffffffffff161415151561054a57600080fd5b8073ffffffffffffffffffffffffffffffffffffffff166000809054906101000a900473ffffffffffffffffffffffffffffffffffffffff1673ffffffffffffffffffffffffffffffffffffffff167f8be0079c531659141344cd1fd0a4f28419497f9722a3daafe3b4186f6b6457e060405160405180910390a3806000806101000a81548173ffffffffffffffffffffffffffffffffffffffff021916908373ffffffffffffffffffffffffffffffffffffffff16021790555050565b8154818355818115116106355760070281600702836000526020600020918201910161063491906106ba565b5b505050565b828054600181600116156101000203166002900490600052602060002090601f016020900481019282601f1061067b57805160ff19168380011785556106a9565b828001600101855582156106a9579182015b828111156106a857825182559160200191906001019061068d565b5b5090506106b69190610715565b5090565b61071291905b8082111561070e576000808201600090556001820160006106e1919061073a565b6002820160006101000a81549060ff021916905560038201600090556004820160009055506007016106c0565b5090565b90565b61073791905b8082111561073357600081600090555060010161071b565b5090565b90565b50805460018160011615610100020316600290046000825580601f10610760575061077f565b601f01602090049060005260206000209081019061077e9190610715565b5b505600a165627a7a723058206f16a977f42a88940e83154efe7db36ab332889e841ae43fafaee497a7c869680029",
  "source": "pragma solidity ^0.4.17;\n\nimport \"../node_modules/zeppelin-solidity/contracts/ownership/Ownable.sol\";\nimport \"./Fighter.sol\";\n\ncontract Game is Ownable {\n    using Fighter for Fighter.Data;\n    Fighter.Data[] public fighters;\n\n    mapping (uint => address) public fighterOwners;\n\n    function createFighter(string name, Fighter.Gender gender) public returns (uint fighterId) {\n        fighterId = fighters.length;\n        fighters.push(Fighter.Data(fighterId, name, gender, now, 0));\n        fighterOwners[fighterId] = owner;\n    }\n}",
  "sourcePath": "/Users/dark/work/legend/contracts/Game.sol",
  "compiler": {
    "name": "solc",
    "version": "0.4.19+commit.c4cbbb05.Emscripten.clang"
  },
  "schemaVersion": "2.0.0",
  "updatedAt": "2018-04-03T08:59:01.416Z"
}