{
  "contractName": "Game",
  "abi": [
    {
      "constant": true,
      "inputs": [
        {
          "name": "",
          "type": "uint256"
        }
      ],
      "name": "fighters",
      "outputs": [
        {
          "name": "id",
          "type": "uint256"
        },
        {
          "name": "name",
          "type": "string"
        },
        {
          "name": "gender",
          "type": "uint8"
        },
        {
          "name": "readyTime",
          "type": "uint256"
        },
        {
          "name": "itemCount",
          "type": "uint256"
        }
      ],
      "payable": false,
      "stateMutability": "view",
      "type": "function"
    },
    {
      "constant": true,
      "inputs": [],
      "name": "owner",
      "outputs": [
        {
          "name": "",
          "type": "address"
        }
      ],
      "payable": false,
      "stateMutability": "view",
      "type": "function"
    },
    {
      "constant": true,
      "inputs": [
        {
          "name": "",
          "type": "uint256"
        }
      ],
      "name": "fighterOwners",
      "outputs": [
        {
          "name": "",
          "type": "address"
        }
      ],
      "payable": false,
      "stateMutability": "view",
      "type": "function"
    },
    {
      "constant": false,
      "inputs": [
        {
          "name": "newOwner",
          "type": "address"
        }
      ],
      "name": "transferOwnership",
      "outputs": [],
      "payable": false,
      "stateMutability": "nonpayable",
      "type": "function"
    },
    {
      "anonymous": false,
      "inputs": [
        {
          "indexed": true,
          "name": "previousOwner",
          "type": "address"
        },
        {
          "indexed": true,
          "name": "newOwner",
          "type": "address"
        }
      ],
      "name": "OwnershipTransferred",
      "type": "event"
    },
    {
      "constant": false,
      "inputs": [
        {
          "name": "name",
          "type": "string"
        },
        {
          "name": "gender",
          "type": "uint8"
        }
      ],
      "name": "createFighter",
      "outputs": [
        {
          "name": "fighterId",
          "type": "uint256"
        }
      ],
      "payable": false,
      "stateMutability": "nonpayable",
      "type": "function"
    },
    {
      "constant": false,
      "inputs": [
        {
          "name": "name",
          "type": "string"
        }
      ],
      "name": "pushFighter",
      "outputs": [],
      "payable": false,
      "stateMutability": "nonpayable",
      "type": "function"
    },
    {
      "constant": true,
      "inputs": [],
      "name": "age",
      "outputs": [
        {
          "name": "",
          "type": "uint256"
        }
      ],
      "payable": false,
      "stateMutability": "pure",
      "type": "function"
    }
  ],
  "bytecode": "0x6060604052336000806101000a81548173ffffffffffffffffffffffffffffffffffffffff021916908373ffffffffffffffffffffffffffffffffffffffff16021790555061092a806100536000396000f300606060405260043610610083576000357c0100000000000000000000000000000000000000000000000000000000900463ffffffff168063262a9dff146100885780632e6b221d146100b15780635c69a23f146101945780638da5cb5b146101f157806392165a6014610246578063e5cbb693146102a9578063f2fde38b14610326575b600080fd5b341561009357600080fd5b61009b61035f565b6040518082815260200191505060405180910390f35b34156100bc57600080fd5b6100d26004808035906020019091905050610368565b60405180868152602001806020018560018111156100ec57fe5b60ff1681526020018481526020018381526020018281038252868181546001816001161561010002031660029004815260200191508054600181600116156101000203166002900480156101815780601f1061015657610100808354040283529160200191610181565b820191906000526020600020905b81548152906001019060200180831161016457829003601f168201915b5050965050505050505060405180910390f35b341561019f57600080fd5b6101ef600480803590602001908201803590602001908080601f016020809104026020016040519081016040528093929190818152602001838380828437820191505050505050919050506103b9565b005b34156101fc57600080fd5b610204610482565b604051808273ffffffffffffffffffffffffffffffffffffffff1673ffffffffffffffffffffffffffffffffffffffff16815260200191505060405180910390f35b341561025157600080fd5b61026760048080359060200190919050506104a7565b604051808273ffffffffffffffffffffffffffffffffffffffff1673ffffffffffffffffffffffffffffffffffffffff16815260200191505060405180910390f35b34156102b457600080fd5b610310600480803590602001908201803590602001908080601f0160208091040260200160405190810160405280939291908181526020018383808284378201915050505050509190803560ff169060200190919050506104da565b6040518082815260200191505060405180910390f35b341561033157600080fd5b61035d600480803573ffffffffffffffffffffffffffffffffffffffff1690602001909190505061062f565b005b6000602a905090565b60018181548110151561037757fe5b906000526020600020906007020160009150905080600001549080600101908060020160009054906101000a900460ff16908060030154908060040154905085565b600180548060010182816103cd9190610784565b9160005260206000209060070201600060a060405190810160405280600181526020018581526020016000600181111561040357fe5b81526020014281526020016000815250909190915060008201518160000155602082015181600101908051906020019061043e9291906107b6565b5060408201518160020160006101000a81548160ff0219169083600181111561046357fe5b0217905550606082015181600301556080820151816004015550505050565b6000809054906101000a900473ffffffffffffffffffffffffffffffffffffffff1681565b60026020528060005260406000206000915054906101000a900473ffffffffffffffffffffffffffffffffffffffff1681565b60006001805490509050600180548060010182816104f89190610784565b9160005260206000209060070201600060a0604051908101604052808581526020018781526020018660ff16600181111561052f57fe5b600181111561053a57fe5b8152602001428152602001600081525090919091506000820151816000015560208201518160010190805190602001906105759291906107b6565b5060408201518160020160006101000a81548160ff0219169083600181111561059a57fe5b021790555060608201518160030155608082015181600401555050506000809054906101000a900473ffffffffffffffffffffffffffffffffffffffff166002600083815260200190815260200160002060006101000a81548173ffffffffffffffffffffffffffffffffffffffff021916908373ffffffffffffffffffffffffffffffffffffffff16021790555092915050565b6000809054906101000a900473ffffffffffffffffffffffffffffffffffffffff1673ffffffffffffffffffffffffffffffffffffffff163373ffffffffffffffffffffffffffffffffffffffff1614151561068a57600080fd5b600073ffffffffffffffffffffffffffffffffffffffff168173ffffffffffffffffffffffffffffffffffffffff16141515156106c657600080fd5b8073ffffffffffffffffffffffffffffffffffffffff166000809054906101000a900473ffffffffffffffffffffffffffffffffffffffff1673ffffffffffffffffffffffffffffffffffffffff167f8be0079c531659141344cd1fd0a4f28419497f9722a3daafe3b4186f6b6457e060405160405180910390a3806000806101000a81548173ffffffffffffffffffffffffffffffffffffffff021916908373ffffffffffffffffffffffffffffffffffffffff16021790555050565b8154818355818115116107b1576007028160070283600052602060002091820191016107b09190610836565b5b505050565b828054600181600116156101000203166002900490600052602060002090601f016020900481019282601f106107f757805160ff1916838001178555610825565b82800160010185558215610825579182015b82811115610824578251825591602001919060010190610809565b5b5090506108329190610891565b5090565b61088e91905b8082111561088a5760008082016000905560018201600061085d91906108b6565b6002820160006101000a81549060ff0219169055600382016000905560048201600090555060070161083c565b5090565b90565b6108b391905b808211156108af576000816000905550600101610897565b5090565b90565b50805460018160011615610100020316600290046000825580601f106108dc57506108fb565b601f0160209004906000526020600020908101906108fa9190610891565b5b505600a165627a7a72305820e114980bc9f0de6b737d8c4d090b3acbe48a60ccc2e17c224b54fafd9e626ccc0029",
  "source": "pragma solidity ^0.4.17;\n\nimport \"../node_modules/zeppelin-solidity/contracts/ownership/Ownable.sol\";\nimport \"./Fighter.sol\";\n\ncontract Game is Ownable {\n    using Fighter for Fighter.Data;\n    Fighter.Data[] public fighters;\n\n    mapping (uint => address) public fighterOwners;\n\n    function createFighter(string name, uint8 gender) public returns (uint fighterId) {\n        fighterId = fighters.length;\n        fighters.push(Fighter.Data(fighterId, name, Fighter.Gender(gender), now, 0));\n        fighterOwners[fighterId] = owner;\n    }\n\n    function pushFighter(string name) public {\n        fighters.push(Fighter.Data(1, name, Fighter.Gender.Male, now, 0));\n    }\n\n    function age() public pure returns (uint) {\n        return 42;\n    }\n}",
  "sourcePath": "/Users/calios/Documents/MyWorkspace/Blockchain/CryptoWarrior/ethereum/contracts/Game.sol",
  "compiler": {
    "name": "solc",
    "version": "0.4.19+commit.c4cbbb05.Emscripten.clang"
  },
  "schemaVersion": "2.0.0",
  "updatedAt": "2018-04-08T09:48:31.924Z"
}