{
  "contractName": "Game",
  "abi": [
    {
      "constant": true,
      "inputs": [
        {
          "name": "",
          "type": "uint256"
        }
      ],
      "name": "fighters",
      "outputs": [
        {
          "name": "id",
          "type": "uint256"
        },
        {
          "name": "name",
          "type": "string"
        },
        {
          "name": "gender",
          "type": "uint8"
        },
        {
          "name": "readyTime",
          "type": "uint256"
        },
        {
          "name": "itemCount",
          "type": "uint256"
        }
      ],
      "payable": false,
      "stateMutability": "view",
      "type": "function"
    },
    {
      "constant": true,
      "inputs": [],
      "name": "owner",
      "outputs": [
        {
          "name": "",
          "type": "address"
        }
      ],
      "payable": false,
      "stateMutability": "view",
      "type": "function"
    },
    {
      "constant": true,
      "inputs": [
        {
          "name": "",
          "type": "uint256"
        }
      ],
      "name": "fighterOwners",
      "outputs": [
        {
          "name": "",
          "type": "address"
        }
      ],
      "payable": false,
      "stateMutability": "view",
      "type": "function"
    },
    {
      "constant": false,
      "inputs": [
        {
          "name": "newOwner",
          "type": "address"
        }
      ],
      "name": "transferOwnership",
      "outputs": [],
      "payable": false,
      "stateMutability": "nonpayable",
      "type": "function"
    },
    {
      "anonymous": false,
      "inputs": [
        {
          "indexed": true,
          "name": "previousOwner",
          "type": "address"
        },
        {
          "indexed": true,
          "name": "newOwner",
          "type": "address"
        }
      ],
      "name": "OwnershipTransferred",
      "type": "event"
    },
    {
      "constant": false,
      "inputs": [
        {
          "name": "name",
          "type": "string"
        },
        {
          "name": "gender",
          "type": "uint8"
        }
      ],
      "name": "createFighter",
      "outputs": [],
      "payable": false,
      "stateMutability": "nonpayable",
      "type": "function"
    }
  ],
  "bytecode": "0x6060604052336000806101000a81548173ffffffffffffffffffffffffffffffffffffffff021916908373ffffffffffffffffffffffffffffffffffffffff160217905550610823806100536000396000f30060606040526004361061006d576000357c0100000000000000000000000000000000000000000000000000000000900463ffffffff1680632e6b221d146100725780638da5cb5b1461013857806392165a601461018d578063e5cbb693146101f0578063f2fde38b14610259575b600080fd5b341561007d57600080fd5b6100936004808035906020019091905050610292565b60405180868152602001806020018560018111156100ad57fe5b60ff168152602001848152602001838152602001828103825286818151815260200191508051906020019080838360005b838110156100f95780820151818401526020810190506100de565b50505050905090810190601f1680156101265780820380516001836020036101000a031916815260200191505b50965050505050505060405180910390f35b341561014357600080fd5b61014b61037c565b604051808273ffffffffffffffffffffffffffffffffffffffff1673ffffffffffffffffffffffffffffffffffffffff16815260200191505060405180910390f35b341561019857600080fd5b6101ae60048080359060200190919050506103a1565b604051808273ffffffffffffffffffffffffffffffffffffffff1673ffffffffffffffffffffffffffffffffffffffff16815260200191505060405180910390f35b34156101fb57600080fd5b610257600480803590602001908201803590602001908080601f0160208091040260200160405190810160405280939291908181526020018383808284378201915050505050509190803560ff169060200190919050506103d4565b005b341561026457600080fd5b610290600480803573ffffffffffffffffffffffffffffffffffffffff16906020019091905050610528565b005b6001818154811015156102a157fe5b9060005260206000209060070201600091509050806000015490806001018054600181600116156101000203166002900480601f0160208091040260200160405190810160405280929190818152602001828054600181600116156101000203166002900480156103535780601f1061032857610100808354040283529160200191610353565b820191906000526020600020905b81548152906001019060200180831161033657829003601f168201915b5050505050908060020160009054906101000a900460ff16908060030154908060040154905085565b6000809054906101000a900473ffffffffffffffffffffffffffffffffffffffff1681565b60026020528060005260406000206000915054906101000a900473ffffffffffffffffffffffffffffffffffffffff1681565b60006001805490509050600180548060010182816103f2919061067d565b9160005260206000209060070201600060a0604051908101604052808581526020018781526020018660ff16600181111561042957fe5b600181111561043457fe5b81526020014281526020016000815250909190915060008201518160000155602082015181600101908051906020019061046f9291906106af565b5060408201518160020160006101000a81548160ff0219169083600181111561049457fe5b021790555060608201518160030155608082015181600401555050506000809054906101000a900473ffffffffffffffffffffffffffffffffffffffff166002600083815260200190815260200160002060006101000a81548173ffffffffffffffffffffffffffffffffffffffff021916908373ffffffffffffffffffffffffffffffffffffffff160217905550505050565b6000809054906101000a900473ffffffffffffffffffffffffffffffffffffffff1673ffffffffffffffffffffffffffffffffffffffff163373ffffffffffffffffffffffffffffffffffffffff1614151561058357600080fd5b600073ffffffffffffffffffffffffffffffffffffffff168173ffffffffffffffffffffffffffffffffffffffff16141515156105bf57600080fd5b8073ffffffffffffffffffffffffffffffffffffffff166000809054906101000a900473ffffffffffffffffffffffffffffffffffffffff1673ffffffffffffffffffffffffffffffffffffffff167f8be0079c531659141344cd1fd0a4f28419497f9722a3daafe3b4186f6b6457e060405160405180910390a3806000806101000a81548173ffffffffffffffffffffffffffffffffffffffff021916908373ffffffffffffffffffffffffffffffffffffffff16021790555050565b8154818355818115116106aa576007028160070283600052602060002091820191016106a9919061072f565b5b505050565b828054600181600116156101000203166002900490600052602060002090601f016020900481019282601f106106f057805160ff191683800117855561071e565b8280016001018555821561071e579182015b8281111561071d578251825591602001919060010190610702565b5b50905061072b919061078a565b5090565b61078791905b808211156107835760008082016000905560018201600061075691906107af565b6002820160006101000a81549060ff02191690556003820160009055600482016000905550600701610735565b5090565b90565b6107ac91905b808211156107a8576000816000905550600101610790565b5090565b90565b50805460018160011615610100020316600290046000825580601f106107d557506107f4565b601f0160209004906000526020600020908101906107f3919061078a565b5b505600a165627a7a723058206ae29656ee515ca70e4fe83ea0704ab8e98ec6b0f69213bf4c2d4f59ea99434a0029",
  "source": "pragma solidity ^0.4.17;\n\nimport \"../node_modules/zeppelin-solidity/contracts/ownership/Ownable.sol\";\nimport \"./Fighter.sol\";\n\ncontract Game is Ownable {\n    using Fighter for Fighter.Data;\n    Fighter.Data[] public fighters;\n\n    mapping (uint => address) public fighterOwners;\n\n    function createFighter(string name, uint8 gender) public {\n        uint fighterId = fighters.length;\n        fighters.push(Fighter.Data(fighterId, name, Fighter.Gender(gender), now, 0));\n        fighterOwners[fighterId] = owner;\n    }\n}",
  "sourcePath": "/Users/dark/work/CryptoWarrior/blockchain/contracts/Game.sol",
  "compiler": {
    "name": "solc",
    "version": "0.4.21+commit.dfe3193c.Emscripten.clang"
  },
  "schemaVersion": "2.0.0",
  "updatedAt": "2018-04-08T10:25:25.341Z"
}