{
  "contractName": "ZombieFactory",
  "abi": [
    {
      "constant": true,
      "inputs": [
        {
          "name": "",
          "type": "uint256"
        }
      ],
      "name": "zombies",
      "outputs": [
        {
          "name": "name",
          "type": "string"
        },
        {
          "name": "dna",
          "type": "uint256"
        }
      ],
      "payable": false,
      "stateMutability": "view",
      "type": "function"
    },
    {
      "anonymous": false,
      "inputs": [
        {
          "indexed": false,
          "name": "zombieId",
          "type": "uint256"
        },
        {
          "indexed": false,
          "name": "name",
          "type": "string"
        },
        {
          "indexed": false,
          "name": "dna",
          "type": "uint256"
        }
      ],
      "name": "NewZombie",
      "type": "event"
    },
    {
      "constant": false,
      "inputs": [
        {
          "name": "_name",
          "type": "string"
        }
      ],
      "name": "createRandomZombie",
      "outputs": [],
      "payable": false,
      "stateMutability": "nonpayable",
      "type": "function"
    }
  ],
  "bytecode": "0x60606040526010600055600054600a0a600155341561001d57600080fd5b6104de8061002c6000396000f30060606040526004361061004c576000357c0100000000000000000000000000000000000000000000000000000000900463ffffffff1680632052465e146100515780637bff0a0114610111575b600080fd5b341561005c57600080fd5b610072600480803590602001909190505061016e565b60405180806020018381526020018281038252848181546001816001161561010002031660029004815260200191508054600181600116156101000203166002900480156101015780601f106100d657610100808354040283529160200191610101565b820191906000526020600020905b8154815290600101906020018083116100e457829003601f168201915b5050935050505060405180910390f35b341561011c57600080fd5b61016c600480803590602001908201803590602001908080601f016020809104026020016040519081016040528093929190818152602001838380828437820191505050505050919050506101a0565b005b60028181548110151561017d57fe5b906000526020600020906002020160009150905080600001908060010154905082565b60006101ab826101bb565b90506101b7828261023d565b5050565b600080826040518082805190602001908083835b6020831015156101f457805182526020820191506020810190506020830392506101cf565b6001836020036101000a03801982511681845116808217855250505050505090500191505060405180910390206001900490506001548181151561023457fe5b06915050919050565b6000600160028054806001018281610255919061035c565b916000526020600020906002020160006040805190810160405280888152602001878152509091909150600082015181600001908051906020019061029b92919061038e565b506020820151816001015550500390507f88f026aacbbecc90c18411df4b1185fd8d9be2470f1962f192bf84a27d0704b78184846040518084815260200180602001838152602001828103825284818151815260200191508051906020019080838360005b8381101561031b578082015181840152602081019050610300565b50505050905090810190601f1680156103485780820380516001836020036101000a031916815260200191505b5094505050505060405180910390a1505050565b81548183558181151161038957600202816002028360005260206000209182019101610388919061040e565b5b505050565b828054600181600116156101000203166002900490600052602060002090601f016020900481019282601f106103cf57805160ff19168380011785556103fd565b828001600101855582156103fd579182015b828111156103fc5782518255916020019190600101906103e1565b5b50905061040a9190610445565b5090565b61044291905b8082111561043e576000808201600061042d919061046a565b600182016000905550600201610414565b5090565b90565b61046791905b8082111561046357600081600090555060010161044b565b5090565b90565b50805460018160011615610100020316600290046000825580601f1061049057506104af565b601f0160209004906000526020600020908101906104ae9190610445565b5b505600a165627a7a7230582091874ae067aaab32f1d5154c316f110fdce340bc329a702f83b38754400c5fed0029",
  "source": "pragma solidity ^0.4.19;\n\ncontract ZombieFactory {\n\n    event NewZombie(uint zombieId, string name, uint dna);\n\n    uint dnaDigits = 16;\n    uint dnaModulus = 10 ** dnaDigits;\n\n    struct Zombie {\n        string name;\n        uint dna;\n    }\n\n    Zombie[] public zombies;\n\n    function _createZombie(string _name, uint _dna) private {\n        uint id = zombies.push(Zombie(_name, _dna)) - 1;\n        NewZombie(id, _name, _dna);    // latest version solidity requires `emit`\n    }\n\n    function _generateRandomDna(string _str) private view returns(uint) {\n        uint rand = uint(keccak256(_str));\n        return rand % dnaModulus;\n    }\n\n    function createRandomZombie(string _name) public {\n        uint randDna = _generateRandomDna(_name);\n        _createZombie(_name, randDna);\n    }\n}",
  "sourcePath": "/Users/calios/Documents/MyWorkspace/Blockchain/CryptoZombie/contracts/ZombieFactoray.sol",
  "compiler": {
    "name": "solc",
    "version": "0.4.19+commit.c4cbbb05.Emscripten.clang"
  },
  "schemaVersion": "2.0.0",
  "updatedAt": "2018-03-30T10:09:13.744Z"
}